:1000000078AEFF1FC99C00007DA1000081A1000007
:1000100085A1000089A100008DA100000000000062
:1000200000000000000000000000000091A100009E
:1000300095A100000000000099A10000D5890000F2
:100040001D4900002D4900003D4900004D490000B8
:100050005D4900006D4900007D4900008D490000A8
:100060009D490000AD490000BD490000CD49000098
:10007000DD490000ED490000FD4900000D4A000087
:100080001D4A00002D4A00003D4A00004D4A000074
:100090005D4A00006D4A00007D4A00008D4A000064
:1000A0009D4A0000AD4A0000BD4A0000CD4A000054
:1000B000DD4A0000ED4A0000FD4A00000D4B000043
:1000C0001D4B00002F4B0000414B0000534B000024
:1000D000654B0000774B0000894B00009B4B0000F4
:1000E000AD4B0000BF4B0000D14B0000E34B0000C4
:1000F000F54B0000074C0000194C00002B4C000091
:100100003B4C00004B4C00005B4C00006B4C000073
:100110007B4C00008B4C00009B4C0000AB4C000063
:10012000BB4C0000CB4C0000DB4C0000EB4C000053
:10013000FB4C00000B4D00001B4D00002B4D000040
:100140003B4D00004B4D00005B4D00006B4D00002F
:100150007B4D00008B4D00009B4D0000AB4D00001F
:10016000BB4D0000CB4D0000DB4D0000EB4D00000F
:10017000FB4D00000B4E00001B4E00002B4E0000FC
:100180003B4E00004B4E00005D4E00006D4E0000E7
:100190007D4E00008D4E0000A14E0000B14E0000CB
:1001A000C14E0000D54E0000E54E0000F54E0000A7
:1001B000054F0000154F0000254F0000354F00008F
:1001C000494F0000594F0000694F0000794F00006F
:1001D000894F0000994F0000A94F0000B94F00005F
:1001E000C94F0000D94F0000E94F0000F94F00004F
:1001F000095000001950000029500000395000003B
:10020000495000005950000069500000795000002A
:100210008950000099500000A9500000B95000001A
:10022000C9500000D9500000E9500000F95000000A
:1002300009510000195100002951000039510000F6
:100240009DA10000A1A10000A5A10000A9A100009E
:10025000ADA10000B1A10000B5A10000B9A100004E
:10026000BDA10000C1A10000C5A10000C9A10000FE
:10027000CDA10000D1A10000D5A10000D9A10000AE
:10028000FEE70EE002684368024408305FEAC37C80
:1002900044BF4B445B1E52F804CB43F804CB091F08
:1002A000F9D150F8041B0029ECD170470268531CA7
:1002B0000360117070472E004300000050B1B0FA87
:1002C00080F18840C91CC1F58461090501EBD0218A
:1002D000400570470146704700000000B80200006A
:1002E000010000004880FF1F000000000000000027
:1002F000000000000000000000000000C9580000DD
:10030000BD580000DD5800000000000000000000A3
:1003100000000000000000000000000001000000DC
:1003200000000000D8020000D8020000D80200003F
:10033000D8020000D8020000D8020000D802000055
:10034000FFFFFFFFFFFFFFFFB6020000D802000023
:10035000D8020000FFFFFFFFFFFF00002D3100006B
:100360003B9200000D930000239200002F920000AA
:0C037000179300002B9300001100000008
:10040000BFFFDFFFFFFEFFFFFFFFFFFFFFFFFFFF5D
:10041000FFFFFFFFFFFFFFFFFFFFFFFFFFFFFFFFEC
:100420002DE9FC4105000C0016001F005FF00008DC
:1004300000200090DFF82409854211D0DFF8200960
:1004400085420DD0DFF81C09854209D0DFF8180974
:10045000854205D04FF49371DFF85C09FFF710FF78
:10046000002C05D0DFF8040950EA0401814205D0D0
:1004700040F22711DFF84009FFF702FF21002800B2
:1004800000F0DFFC3100C9B288420DD000988742ED
:1004900006D217F1010F03D07FF00700804603E07A
:1004A0000098401C0090E9E74046BDE8F6812DE940
:1004B000F84F8CB007000D00012005905FF0FF366B
:1004C000DFF89808874211D0DFF8940887420DD0F2
:1004D000DFF89008874209D0DFF88C08874205D002
:1004E00040F24F11DFF8D008FFF7CAFE2C686868A9
:1004F0000290002C00F000810298002800F0FC809F
:10050000F868C0F3C030019002980199D1F102015E
:100510004843C000B4FBF0F0401E00900098B0F5D6
:10052000807F80F093800098A86002990198D0F1B4
:10053000020000FB01F0C000B4FBF0F100FB114031
:1005400008900898002804D10020286100200600A7
:100550007CE001980021D0F1020871EB410900987C
:100560000021421C71F1FF33A2FB080102FB0911BB
:1005700003FB0811029A0023A2FB008902FB0199E8
:1005800003FB00995FEAC90949EA58795FEAC8089C
:100590005FEA092949EA18695FEA0828C246CB469A
:1005A0002000400800211AEB00005BEB0101CDE9BF
:1005B0000601DDE90623002001218B420BD301D87F
:1005C000824208D3DDE906012200002300F0CCFDC1
:1005D0008038039005E0DDE90601B0FBF4F08038D7
:1005E0000390039880282FD20398E860CDE906ABEA
:1005F0002200002303980021803051F10001A0FB6C
:10060000028900FB039901FB0299CDE90A89DDE922
:100610000A0100F0C1FE80468946DDE9060100F0CE
:10062000BBFE02000B004046494600F0D9FE00F038
:10063000FBFF0100DFF86C0801F02AF80490049831
:1006400028610020060001E00020059005980028A0
:1006500052D10A2000FB04F00299019AD2F1020261
:100660005143C900B0FBF1F0401D0A21B0FBF1F08D
:10067000401E00900098B0F5807F3DD20098A860A1
:1006800001980021D0F1020871EB41090098002186
:10069000421C71F1FF33A2FB080102FB091103FBAD
:1006A0000811029A0023A2FB008902FB019903FBB7
:1006B00000995FEAC90949EA58795FEAC808CDE9B3
:1006C00006892000FFF7FAFD80468946DDE906012C
:1006D00000F062FE02000B004046494600F080FE3A
:1006E00000F0A2FF0100DFF8BC0700F0D1FF04908A
:1006F000049828610020060030000DB0BDE8F08F9E
:100700002DE9F84F88B083460F00012004905FF078
:10071000FF3ADFF84806834511D0DFF844068345E9
:100720000DD0DFF84006834509D0DFF83C0683454D
:1007300005D04FF4D371DFF88006FFF7A1FD3E68C6
:1007400078680190002E00F0C2800198002800F027
:10075000BE8001988000B6FBF0F0401E009000982B
:10076000B0F5807F6DD20098B86001988000B6FB2C
:10077000F0F100FB116005900598002804D10020DD
:100780003861002082465CE000980021421C71F133
:10079000FF3301980021A0FB028900FB039901FBB4
:1007A00002995FEA890949EA98795FEA880844462C
:1007B0004D4622002B001B0243EA12631202300056
:1007C00040080021101859413200002300F0CCFCF1
:1007D000803803900398802831D20398F8602D0266
:1007E00045EA14652402320000230398002180307A
:1007F00051F10001A0FB028900FB039901FB029962
:10080000CDE90689DDE9060100F0C6FD804689468E
:100810002000290000F0C0FD02000B0040464946C0
:1008200000F0DEFD00F000FF0100DFF8780600F0C8
:100830002FFF0290029838610020824601E00020DC
:1008400004900498002842D10A2000FB06F0019988
:100850008900B0FBF1F0401D0A21B0FBF1F0401E11
:1008600000900098B0F5807F31D20098B860009871
:100870000021421C71F1FF3301980021A0FB028985
:1008800000FB039901FB02995FEA890949EA98791B
:100890005FEA880844464D463000FFF70FFD80466A
:1008A00089462000290000F077FD02000B00404639
:1008B000494600F095FD00F0B7FE0100DFF8E405C1
:1008C00000F0E6FE02900298386100208246504611
:1008D00009B0BDE8F08F2DE9F84F8CB083460F00CA
:1008E00008A8DFF83416102200F094FF5FF0FF3AFA
:1008F000DFF86804834511D0DFF8640483450DD028
:10090000DFF86004834509D0DFF85C04834505D037
:100910004FF4FA71DFF8A004FFF7B2FC3E68786884
:100920000290002E00F0F7800298002800F0F3807B
:10093000DBF8148018F46008B8F1000F11D0B8F596
:10094000001F0ED0B8F5C00F0BD0B8F5200F08D09F
:10095000B8F5400F05D04FF4FD71DFF85C04FFF7E8
:100960008FFC08A85FEA585830F8180001900299E7
:10097000019841434900B6FBF1F0401E00900098F9
:10098000B0F5807F76D20098B8600299019800FB9C
:1009900001F04000B6FBF0F100FB116005900598F6
:1009A000002804D1002038610020824662E0DDF892
:1009B00004805FF0000900980021421C71F1FF33B0
:1009C000A2FB080102FB091103FB0811029A002394
:1009D000A2FB008902FB019903FB00995FEA490928
:1009E00049EAD8795FEA480844464D4622002B0080
:1009F0001B0243EA12631202300040080021101863
:100A000059413200002300F0AFFB80380490049875
:100A100080282FD20498F8602D0245EA146524023C
:100A20003200002304980021803051F10001A0FB26
:100A3000028900FB039901FB0299CDE90689DDE9F2
:100A4000060100F0A9FC804689462000290000F03C
:100A5000A3FC02000B004046494600F0C1FC00F038
:100A6000E3FDDFF8401400F013FE039003983861B3
:100A7000002082461AF1010F4DD10A2101FB06F137
:100A8000029A019842435200B1FBF2F0401D0A2144
:100A9000B0FBF1F0401E00900098B0F5807F3AD294
:100AA0000098B860DDF804805FF00009009800212C
:100AB000421C71F1FF33A2FB080102FB091103FB89
:100AC0000811029A0023A2FB008902FB019903FB93
:100AD00000995FEA490949EAD8795FEA480844463B
:100AE0004D463000FFF7EAFB80468946200029008A
:100AF00000F052FC02000B004046494600F070FC3A
:100B000000F092FDDFF89C1300F0C2FD0390039803
:100B100038610020824650460DB0BDE8F08F0100DC
:100B2000DFF8F8030068DFF8F8231268C2F3021256
:100B3000D040704710B50400DFF82002844211D085
:100B4000DFF81C0284420DD0DFF81802844209D07D
:100B5000DFF81402844205D040F24A21DFF858023F
:100B6000FFF78EFB2000FFF7DAFF01000122A069EA
:100B7000400010F006008240B1FBF2F010BD010011
:100B80007FF0020000291AD000220A6000224A6089
:100B900000228A604FF41652CA6000220A610022C5
:100BA0004A6100228A610022CA6100220A625FF063
:100BB00000424A624FF480728A620022100070473D
:100BC0002DE9F04705000C0016007FF0020A002C0A
:100BD00000F0C180614885420ED0614885420BD04B
:100BE0006048854208D06048854205D040F22E31E9
:100BF000DFF83003FFF744FB2068B0F5805F08D0D2
:100C00002068002805D040F22F31DFF81803FFF7E5
:100C100037FBA068B0F5006F08D0A068002805D0A9
:100C20004FF44C71DFF8FC02FFF72AFBA069B0F526
:100C3000C06F0CD0A069B0F5806F08D0A069002803
:100C400005D040F23131DFF8DC02FFF719FB2069F3
:100C5000002809D02069B0F5805F05D040F232311C
:100C6000DFF8C002FFF70CFB6069002809D060695B
:100C7000B0F5005F05D040F23331DFF8A802FFF78E
:100C8000FFFAE069B0F5004F08D0E069002805D010
:100C90004FF44D71DFF88C02FFF7F2FA206AB0F1E1
:100CA000805F08D0206A002805D040F23531DFF897
:100CB0007402FFF7E5FA606A002809D0606AB0F1B3
:100CC000004F05D040F23631DFF85802FFF7D8FA6E
:100CD000A06AB0F5007F09D0A06AB0F5807F05D08A
:100CE00040F23731DFF83C02FFF7CAFAA169206908
:100CF0000143206A0143E0690143606A01430F0038
:100D00002168A0680143606901438846A06AB0F584
:100D1000007F02D14FF4007901E05FF00009EF603D
:100D2000C5F81080C5F814902068002811D16068BB
:100D3000042805D340F24531DFF8E801FFF7A0FAB7
:100D40006068A8613200E168280000F035F9824649
:100D500001E0002082465046BDE8F08700D0014007
:100D600000D401400010024000140240EB010100D9
:100D700038B504000025DFF8B001844211D0DFF857
:100D8000AC0184420DD0DFF8A801844209D0DFF81D
:100D9000A401844205D040F2A131DFF88801FFF7B9
:100DA0006FFA5FF00040E060002020610020606189
:100DB0000020A061280032BD249C000070B5050011
:100DC0000C001600DFF86001854211D0DFF85C01ED
:100DD00085420DD0DFF85801854209D0DFF8540173
:100DE000854205D04FF46F71DFF83801FFF748FAFC
:100DF0003000C0B2002809D03000C0B2012805D0B0
:100E000040F2BD31DFF81C01FFF73AFA002C03D0A5
:100E100054F0EF00EF2805D040F2BE31DFF80401B6
:100E2000FFF72EFAA0B200280AD03100C9B201297A
:100E300003D1E9680143E96002E0E9688143E960C0
:100E400070BD38B505000C00DFF8DC00854211D01C
:100E5000DFF8D80085420DD0DFF8D400854209D0F4
:100E6000DFF8D000854205D04FF47C71DFF8B40084
:100E7000FFF706FA002C05D0DFF80C0250EA040157
:100E8000814205D040F2F131DFF89800FFF7F8F920
:100E90002868204201D1002000E00120C0B232BD0C
:100EA00000000000000080BF38B505000C00DFF82E
:100EB0007800854211D0DFF8740085420DD0DFF84C
:100EC0007000854209D0DFF86C00854205D040F201
:100ED0000141DFF85000FFF7D3F9002C05D0DFF80F
:100EE000A80150EA0401814205D040F20241DFF836
:100EF0003400FFF7C5F914F00B0F05D0E8682104A2
:100F000011F430210843E860E00503D5E86850F4A7
:100F10008010E86031BD0000D4A00000708EFF1F7B
:100F200020400540249C000000D0014000D4014036
:100F3000001002400014024010B50400DFF8140253
:100F4000844211D0DFF8100284420DD0DFF80C0289
:100F5000844209D0DFF80802844205D040F2735180
:100F6000DFF8EC01FFF78CF9E08810BD38B504001C
:100F70000D00DFF8E001844211D0DFF8DC0184428B
:100F80000DD0DFF8D801844209D0DFF8D4018442C3
:100F900005D040F28251DFF8B801FFF771F928005F
:100FA00080B2B0F5007F05D340F28351DFF8A00195
:100FB000FFF766F9A58031BDF0B585B007000C00DC
:100FC0001500002C05D140F2AA51DFF88401FFF78B
:100FD00057F9DFF88001874211D0DFF87C018742A2
:100FE0000DD0DFF87801874209D0DFF8740187421D
:100FF00005D040F2AB51DFF85801FFF741F9F8682E
:1010000010F00C0F05D040F2AC51DFF84401FFF7AF
:1010100037F93800FFF78EFD00900194002004900E
:10102000FF200390FE6816F08076002E0CD17869C0
:10103000800604D469463800FFF739FA08E06946AB
:101040003800FFF748FC03E069463800FFF758FB1B
:10105000002813D1BA68DFF80C110A40039B0299EB
:1010600053EA01234FF67F710B401A43BA6003998C
:10107000FF2903D0F96851F00051F960002D01D02B
:101080000499296005B0F0BDEB0101002DE9F0479E
:1010900080460E00170099467FF00205DFF8B40085
:1010A000804511D0DFF8B00080450DD0DFF8AC00EE
:1010B000804509D0DFF8A800804505D040F20161E5
:1010C000DFF88C00FFF7DCF8002E3ED0002F3CD07C
:1010D000D8F80C0010F480500400002C02D0B4F5B5
:1010E000805F32D1B4F5805F08D13000C00705D5EC
:1010F00040F20961DFF85800FFF7C2F8002082468D
:10110000BA4519D24B46012280214046FFF788F9A3
:101110000500002D10D1002C06D116F80A1089B256
:101120004046FFF723FF04E036F81A104046FFF769
:101130001DFF1AF1010AE3E7002D06D14B460122FB
:1011400040214046FFF76CF905002800BDE8F08714
:10115000249C000000D0014000D401400010024057
:10116000001402408000FFFFBBBBE1B1B2F5803F3D
:1011700080F07E80022A1ED98C46B1FBF2F102FB80
:1011800011C31B0443EA1043B3FBF2FC02FB1C3304
:1011900080B240EA0343B3FBF2F002FB103240EAB4
:1011A0000C4000237047022A05D98446B0FBF2F0B8
:1011B00002FB10C270474AB105D100F00102490894
:1011C0005FEA3000704700220023704700F066BBE2
:1011D0000B000200002100207047904271EB030CCD
:1011E000F6D3B3F5803F2FD2F0B5B3FA83F7B1FA57
:1011F00081F4A7F10F0E3D1B5340CEF1200602FAF9
:101200000EF2F3415340B5F10F0746D80F3C2C4482
:101210004140C4F12006A040F1414140B1FBF3F64A
:1012200003FB1611A2FB0645001BA94102D2761E44
:101230008018594180EA010221FA0EF362FA0EF297
:1012400000215A403046F0BD30B4B1FBF3FC03FB43
:101250001C11A2FB0C45001BA94103D2ACF1010CEF
:101260008018594130BC02460B4660460021704749
:10127000B2F1807F65D3F0B5B2FA82F7B1FA81F4AA
:10128000C7F10F063D1B22FA06F307F1110EF241DA
:1012900020355A40B5F10F07B8D94140C4F12006B6
:1012A000A040F1414140B1FBF3FC03FB1C11A2FB48
:1012B0000C45001BA94103D2BCF1010C8018594117
:1012C0000F2F12D30F3FC90341EA5041B1FBF3F690
:1012D00003FB1611A2FB0645D4EBC030A94102D294
:1012E000761E8018594146EACC3C07B34140C7F10D
:1012F0002006B840F1414140B1FBF3F603FB161163
:10130000A2FB0645001BA94102D2761E8018594156
:1013100080EA010221FA0EF3C7F1200462FA0EF20C
:101320000CFA07F05A402CFA04F13043F0BD80EA81
:10133000010221FA0EF3002162FA0EF260465A40D1
:10134000F0BD8C46B1FBF2F102FB11C31B0243EA74
:101350001063B3FBF2FC02FB1C331B024CEA0020BF
:1013600043EA1063B3FBF2FC02FB1C331B024CEAA2
:10137000002043EA1063B3FBF2FC02FB1C331B02A8
:101380004CEA002043EA1063B3FBF2FC02FB1C3280
:101390004CEA002000237047A9B1B1FA81F2414024
:1013A0009040C2F12002D14102F21D4241404FEA79
:1013B000025C42054FEAD02072F1004250EB4150EE
:1013C0004CEBD121704748B1B0FA80F2C4F2D01191
:1013D0009040A1EB025202EBD02140057047000083
:1013E000F0B540F2FF7581EA030C0CF0004C15EAF1
:1013F00011541DBF15EA1357AC42AF42E5E0BC41A2
:10140000C1F31301C3F31303801A994143F480130A
:1014100004D2641E0018494180185941C90241EAAA
:101420005051B1FBF3F603FB1611A2FB0675D7EB87
:10143000C020A94102D2761E80185941C90241EA52
:101440005051B1FBF3FE03FB1E11A2FB0E75D7EB4F
:10145000C020A94103D2AEF1010E80185941890282
:1014600041EA9051760546EA8E2EB1FBF3F603FB76
:101470001611A2FB0675D7EB8020A94102D2761E79
:1014800080185941C90241EA50514EEA060EB1FB9B
:10149000F3F603FB1611A2FB0675D7EBC020A9419A
:1014A00002D2761E80185941C90241EA5051B1FB5F
:1014B000F3F703FB1711A2FB0735D3EBC020A941BB
:1014C00067F100070CBF004247F0010766F3D5271C
:1014D0004FEA1E31B80814F5806412DDBD0775F1BE
:1014E000004250EB0E5051EB045111F5801F5CBFD0
:1014F00041EA0C01F0BD4CF07F6141F0E041002079
:10150000F0BDBD076D0840EA0E5041F48011D4F1E2
:101510000104B4F120060ADAC4F120060200E0401A
:1015200001FA06F3E1401843B24015430EE0342CB3
:1015300013DCC6F1200445EA40056D0820FA06F2E6
:10154000154321FA06F0A1400D43002175F1004238
:1015500050F1000051EB0C01F0BD00205FEA0C01DE
:10156000F0BDCFB992185B41B3FA83F704BFB2FA6A
:1015700082F6BF190B3FB7F120062FBF02FA06F320
:10158000BB40C7F1200622FA06F638BF3343BA4003
:101590001CB1E419641E33E77F4231F00041B1FA17
:1015A00081F404BFB0FA80F6A4190B3CB4F1200614
:1015B0002FBF00FA06F1A140C4F1200620FA06F67A
:1015C00038BF3143A0403C1B1AE7AC421ABF05EAC2
:1015D0001357AF4212E050EA41061CBF52EA4306DD
:1015E000BFE750EA4107304661461CBF41EA05515A
:1015F000F0BD52EA430C08BFC143F0BD00204FF4D8
:10160000001616EB410F98BF16EB430F08BF16EB01
:10161000410F24BFC14305E016EB430F0CBF6146E9
:101620004CEA0551F0BD000001F000428B1AA3F115
:101630006051B1F5801F0ADBB1F17F6F1FD242EA22
:10164000C102C10071F1004142EB507070470B15AF
:10165000C3F10903212B10D2890241EA9051800283
:101660000128494141F0004121FA03F0C3F1200370
:10167000994071F1004150417047100070476FF080
:10168000000013EB103F5CBF000E42EAC0507047F1
:1016900090EA010F40F16C8081F00041431A4FF055
:1016A00000423EBF5340C01AC918D3095FEAD05C5C
:1016B00013EB400F34BFB3EB410F40E07CEBD15351
:1016C0000CD342EA012122D8D1EB402009D3400AB1
:1016D00028BF5FEA500140EBCC507047401A15D04C
:1016E0004002B0FA80F2521C9040400A4FEA3C237C
:1016F000B3EB026384BF00EB730007E040F400002B
:101700001A16DB07C2F10102D04018437047182BAC
:10171000FCDC31FA03F202FA03F3591A38BF42F043
:101720000102D2EB40203CBF0018ACF1010C5FEA93
:10173000CC5CC20572F100414CEB5020704713EBBA
:10174000400F0FD2C94209D0ACEBD153022B03DBBF
:101750004902172BDDDD70479143401AC042D5D1B5
:101760000020704713EB410FD0D36FF0000070479B
:10177000421A3CBF801A8918C0F3C752FF2A4FF0A3
:10178000004C22D0C1F3C7534BB3D21AD2F1190384
:101790002EDD4CEA01214CFA03F321EA0303D14088
:1017A0004CEA00226FF3160052180FD353EAC253CB
:1017B0004CEA520273EB0C0C50EB1220420012F177
:1017C000807F38BF70476FF31600704753EA02639B
:1017D00022EA0C0273EB0C0C50EB1220704749020A
:1017E00012BF9A4200EB5120EFE7D2F11703D2D596
:1017F0007047000062B38B0708D0521E11F8013BFE
:1018000000F8013B00F024808B07F6D1830740F0FD
:10181000208000BF103A07D330B4B1E83810103A36
:10182000A0E83810F9D230BC530724BFB1E8081043
:10183000A0E8081044BF51F8043B40F8043BD2072D
:1018400024BF31F8022B20F8022B44BF0B78037021
:101850007047121F17D35B0009D151F8043B20F8E1
:10186000023B1B0C121F20F8023BF6D20BE051F892
:10187000043B00F8013B1B0A20F8023B1B0C121F23
:1018800000F8013BF3D238BF121D521E24BF11F8DD
:10189000013B00F8013BF8D870470000704700009A
:1018A0002DE9F04704000D0016001F00DDF8208030
:1018B00000205FF001095FF0000A5046290080B265
:1018C00089B2884217D2504680B2205C3178884273
:1018D0000ED13A0092B23100504680B2204400F05E
:1018E00071FE002804D1A8F800A00020814602E083
:1018F0001AF1010AE1E74846C0B2BDE8F08700B539
:1019000085B0684600F086FF0120ADF80000022097
:10191000ADF802006A460421042000F087FE6A4602
:101920000821042000F082FE0421042001F060F868
:101930004FF4FA7001F0FEF80421042001F021F8C0
:101940004FF4FA7001F0F6F805B000BD2DE9F04350
:10195000CFB004004FF49671002204AD280001F0CE
:101960000BF9002502A801F03AF9DFF87C2612F104
:101970003D000190DDE9020100901823DFF86C16AC
:1019800004A801F02FF904A801F04CF90600370073
:10199000BFB20DF11008A1463A0041464846FFF794
:1019A00029FF300080B24FB0BDE8F0832DE9F04F41
:1019B0009BB001208DF80A0000240026002532216A
:1019C00000220BAF380001F0D7F80020ADF8060078
:1019D0000020ADF808000A21002218AF380001F0FD
:1019E000CBF80020ADF8280000208DF8040000207E
:1019F0008DF805004FF49679CDF8209000200790DF
:101A0000DFF8ECA55746079A0899380001F0B4F8BA
:101A100032200690002005900BAF059A06993800F9
:101A200001F0AAF8DFF8CC75002038804FF4826B03
:101A3000CDF810B000200390DFF8BC85CDF8008011
:101A4000039A0499009801F097F80098DFF8B00A1B
:101A50000078002821D002283BD02CD3042856D06F
:101A600046D3062870D061D3082800F08A807AD344
:101A70000A2800F0A280C0F092800C2800F0BC8000
:101A8000C0F0AA800E2800F02D81C0F0C58010287B
:101A900000F03681C0F0188140E1DFF8681A504646
:101AA00001F0DCF8504601F0BDF80500B7A10BA825
:101AB00001F098F832E1DFF8501A504601F0CEF804
:101AC000504601F0AFF80500B0A10BA801F08AF86C
:101AD00024E1DFF8381A504601F0C0F8504601F012
:101AE000A1F80500DFF8281A0BA801F07BF815E132
:101AF000DFF8201A504601F0B1F8504601F092F894
:101B00000500DFF8141A0BA801F06CF806E1DFF805
:101B10000C1A504601F0A2F8504601F083F8050077
:101B2000DFF8FC190BA801F05DF8F7E0DFF8F41915
:101B3000504601F093F8504601F074F8050093A167
:101B40000BA801F04FF8E9E0DFF8DC19504601F08E
:101B500085F8504601F066F80500DFF8D0190BA8AB
:101B600001F040F8DAE0DFF8C819504601F076F8E5
:101B7000504601F057F8050084A10BA801F032F897
:101B8000CCE0DFF8B019504601F068F8504601F09B
:101B900049F805007DA10BA801F024F8BEE0DFF8AC
:101BA0009819504601F05AF8504601F03BF80500EC
:101BB00076A10BA801F016F8B0E0DFF880195046C6
:101BC00001F04CF8504601F02DF80500DFF87019CF
:101BD0000BA801F007F8A1E0DFF80C24DFF8641986
:101BE000504600F0FFFF504601F01CF8050067A1C9
:101BF0000BA800F0F7FF91E0DFF8EC23DFF84819BD
:101C0000504600F0EFFF504601F00CF805005FA1D0
:101C10000BA800F0E7FF81E05046FFF797FEADF814
:101C20000000CDF8249000200890CDF80CA0089A70
:101C30000999039800F0A0FF0398BDF80030DFF881
:101C4000A823DFF80819504600F0CCFF504600F0FA
:101C5000E9FFADF80000BDF80010504601F000FAB1
:101C60004FF4C87000F066FF00203880CDF81CB03B
:101C700000200690C346069A0799584600F07CFF5C
:101C8000CDF8149000200490D146049A0599484656
:101C900000F072FF5046FFF759FE81460220039084
:101CA0009BA00090484680B20AEB000B039A009973
:101CB0005846FFF79FFD19F102094D46DFF89018CD
:101CC0000BA800F08FFF29E0DFF88818504600F0DD
:101CD000C5FF504600F0A6FF05002CA10BA800F0A0
:101CE00081FF1BE0DFF87018504600F0B7FF504648
:101CF00000F098FF050025A10BA800F073FF0DE090
:101D0000DFF85818504600F0A9FF504600F08AFF4F
:101D100005001EA10BA800F065FFFFE7DFF8DC92CD
:101D2000002089F80000290089B2504601F098F996
:101D30000020060099F80000002829D1142001F0A5
:101D4000F5F9761C300080B2642818DB404600F0BC
:101D500069FF002813D00BA800F064FF82464046BC
:101D600000F060FF01000DF10600009053469BB2A9
:101D70000BAA89B24046FFF793FD002808D1300036
:101D800080B2B0F5FA7FD5DB0220BEE04F4B0000F9
:101D90003888002812D0002006003888404410F807
:101DA000010C00280AD1142001F0C0F9761C300083
:101DB00080B2B0F5FA7FF0DB0220A6E0002089F8BF
:101DC00000000BA800F02EFF03000DF106000090AC
:101DD0009BB20BAA39884046FFF762FD002840F00D
:101DE0008D80DFF81C0701780D2940F081800DF10E
:101DF000060000900723DFF8682739884046FFF780
:101E00004FFD002864D1BDF8069019F10E0948462F
:101E1000398880B288422CD29DF80400002809D16C
:101E2000484680B218F800003A281FD101208DF8EA
:101E300004001BE0484680B218F800002C2808D1A6
:101E4000ADF8089018A801F05DFADFF818170860DF
:101E50000FE0484680B218F8000018A99DF8052048
:101E600088549DF80500401C8DF8050019F1010902
:101E7000CDE700208DF804005FF0000ABDF808B03F
:101E80001BF1080B5846398880B2884217D2584651
:101E900080B218F80000222803D101208DF8040038
:101EA0000DE0584680B218F80000DFF8BC16524624
:101EB000D2B288541AF1010A1BF1010BE2E7DFF8F4
:101EC000A80600F0AFFEDFF8A416088000201CE092
:101ED0000DF1060000900723DFF89426398840466C
:101EE000FFF7DEFC002801D101200EE002200CE00B
:101EF0000178491C0170002004007BE5641C20006F
:101F0000C0B20328FFF676AD03201BB0BDE8F08F0A
:101F10000D0A00002DE9F843002400250027FFF7F3
:101F2000EEFC00263000C0B2032831DA0421042080
:101F300000F05EFD4FF4FA6000F0FCFD0421042087
:101F400000F01FFD4FF4FA6000F0F4FD00200500E2
:101F50002A4F387800280BD10A2000F0EBFD6D1CC9
:101F6000280080B240F2DC518842F1DB01200400FD
:101F7000002038701BA1DFF8FC0501F0CAF9002829
:101F800002D00020040003E001200400761CC9E711
:101F90002000C0B2002820D1002006003000C0B2CE
:101FA00003281ADA0020134908800020DFF85015B2
:101FB00008704FF482675FF00008DFF8B89542467A
:101FC0003900484600F0D8FDFFF7F0FC040020007F
:101FD000C0B2002801D0761CE0E72000C0B2BDE806
:101FE000F283000052445900B08AFF1F189D000080
:101FF0003C8CFF1F6A8EFF1FA080FF1F6E8EFF1F8D
:102000002DE9F74F9AB000208DF805000020ADF8BB
:102010000A000024322100220AAD280000F0ACFDA5
:10202000002004904FF4806003900020ADF8080079
:102030005FF0000800208DF8040000250026002035
:102040008DF806000A21002217AF380000F094FD39
:102050000421042000F0CCFC4FF4FA6000F06AFD8B
:102060004FF4826000905FF00009DFF80875BA460F
:102070004A460099504600F07FFD0421042000F0FC
:1020800080FC4FF4FA6000F055FD5FF0000ADFF8C5
:10209000E804007800280CD10A2000F04BFD1AF16A
:1020A000010A504680B240F2DC518842EFDB012049
:1020B00080460020DFF8C0140870BAA1380001F093
:1020C00028F9002803D000208DF8070002E0012045
:1020D0008DF807004FF49670099000200890DFF803
:1020E0009C94C846089A0999404600F045FD322064
:1020F0000790002006900DF12808069A079940469F
:1021000000F03AFD0020DFF8781408804FF4826078
:10211000059000200090B846009A0599404600F0CE
:102120002BFDDFF8608498F8000000281AD0022800
:1021300034D025D304284DD03ED3062869D057D3B8
:10214000082800F0838073D30A2800F09980C0F03B
:102150008A800C2800F0B180C0F09F800D2800F02C
:10216000BC80C9E0DFF8A013484600F077FD484680
:1021700000F058FD04008CA10AA800F033FDBDE07A
:10218000DFF80414484600F069FD484600F04AFDB7
:10219000040085A10AA800F025FDAFE0DFF8EC13EC
:1021A000484600F05BFD484600F03CFD04007EA17F
:1021B0000AA800F017FDA1E0DFF8D413484600F0AC
:1021C0004DFD484600F02EFD040077A10AA800F05E
:1021D00009FD93E0DFF8BC13484600F03FFD484698
:1021E00000F020FD040070A10AA800F0FBFC85E0CF
:1021F000BDF86C20DFF8A013484600F0F3FC484619
:1022000000F010FD0400DFF894130AA800F0EAFCC7
:1022100074E01A9ADFF88813484600F0E3FC484659
:1022200000F000FD040060A10AA800F0DBFC65E0FE
:10223000DFF87013484600F0D5FC484600F0F2FC89
:10224000040059A10AA800F0CDFC57E0D649484641
:1022500000F004FD484600F0E5FC040052A10AA885
:1022600000F0C0FC4AE0D149484600F0F7FC48467F
:1022700000F0D8FC04004CA10AA800F0B3FC3DE03B
:10228000CB49484600F0EAFC484600F0CBFC04008D
:1022900045A10AA800F0A6FC30E0039B9DF80420AD
:1022A000C449484600F09EFC484600F0BBFC0400D0
:1022B00092A10AA800F096FC20E0039B9DF8042060
:1022C000BD49484600F08EFC484600F0ABFC0400D7
:1022D00035A10AA800F086FC10E09DF80420B7495B
:1022E000484600F07FFC484600F09CFC04002EA10C
:1022F0000AA800F077FC01E00120FCE000209E49E4
:102300000870210089B2484600F0AAFE00208246EB
:10231000DFF8649299F80000002827D1142000F01B
:1023200005FF1AF1010A504680B2642817DB380015
:1023300000F078FC002812D00AA800F073FC834655
:10234000380000F06FFC02A900915B469BB20AAA1C
:10235000010089B23800FFF7A3FA002806D15046E1
:1023600080B2B0F5FA7FD3DB0220C4E0DFF810B210
:10237000BBF80000002819D000208246BBF80000FE
:10238000384410F8010C002810D1142000F0CEFEC3
:102390001AF1010A504680B2B0F5FA7FEEDB022056
:1023A000A9E000BF524459004F4B0000002089F8BB
:1023B00000000AA800F036FC030002A800909BB2BF
:1023C0000AAABBF800103800FFF76AFA002840F0AC
:1023D000878098F80000082805D198F80000401C74
:1023E00088F8000076E698F800000A2847D102A88D
:1023F00000900623724ABBF800103800FFF750FA2D
:10240000002836D100200600BDF80800050028008D
:10241000BBF8001080B288422BD29DF8060000283D
:1024200008D1280080B2385C3A2820D101208DF8EC
:1024300006001CE0280080B2385C0D2805D117A8E2
:1024400000F060FF8DF8040013E0280080B2385CD3
:1024500030280CDB280080B2385C3A2807DA2800E4
:1024600080B2385C17A9320092B28854761C6D1C79
:10247000CDE798F80000401C88F800002AE698F89C
:1024800000000D2801D1002035E098F800000C284C
:1024900020D1049903984118049104981C9988420A
:1024A00005D398F80000401C88F8000012E61C993B
:1024B0000498091A40F20140814203D34FF480602E
:1024C000039003E01C990498091A03910B2088F8E3
:1024D0000000FFE598F80000401C88F80000F9E5CE
:1024E0009DF80500401C8DF805009DF805000328A7
:1024F000FFF6F0AD03201DB0BDE8F08F4F4B3A0062
:102500009C80FF1F2CA1000034A10000E4A000006B
:1025100064A00000F0A000003CA10000FCA00000AE
:1025200008A1000074A0000014A1000020A1000078
:10253000A49E0000C49E0000789F00005C9E0000E6
:1025400044A100000C9E00009C9D00005C9D0000CA
:102550004CA1000084A0000094A00000CC9F0000CB
:1025600054A10000508EFF1F688DFF1F688EFF1F53
:102570005CA10000A080FF1F6E8EFF1F3C8CFF1F20
:102580006A8EFF1F6C8EFF1F949F0000E49E000068
:10259000049F0000A4A0000014A0000064A100009B
:1025A0006CA1000028A00000249F0000B4A000003F
:1025B000E49F00003CA0000050A00000C4A0000068
:1025C00074A100000300002013F0030F09D0521E75
:1025D00022BF13F8010B11F801CBB0EB0C00F3D0C4
:1025E000704711F0030F14D1121F22BF53F8040BD0
:1025F00051F804CB6045F7D0121D0AD200BA9CFAFC
:102600008CFCB0EB0C0038BF6FF0000088BF0120DD
:102610007047521E22BF13F8010B11F801CBB0EB2B
:102620000C00F6D0521C08BF104670472DE9F84F39
:1026300006000F0014005FF0000B002C03D17FF0A8
:1026400002008346E3E0DFF8D0040088C00705D429
:102650004FF48071DFF8C404FDF712FE3000C0B201
:10266000002819D03000C0B2012815D03000C0B207
:10267000022811D03000C0B203280DD03000C0B203
:10268000042809D03000C0B2052805D040F201115D
:10269000DFF88804FDF7F4FD380080B2002803D08D
:1026A000380080B2002805D14FF48171DFF86C0446
:1026B000FDF7E6FD2088002808D02088012805D0F5
:1026C00040F20311DFF85404FDF7DAFD60880028BA
:1026D00008D06088022805D04FF48271DFF83C04EE
:1026E000FDF7CEFDA088002808D0A088042805D0DA
:1026F00040F20511DFF82404FDF7C2FDE088002850
:102700000BD0E088102808D0E088202805D04FF4AE
:102710008371DFF80804FDF7B3FD2089002809D094
:102720002089B0F5804F05D040F20711DFF8EC03A7
:10273000FDF7A6FD6089002808D06089402805D0F3
:102740004FF48471DFF8D403FDF79AFDA0890028C7
:1027500009D0A089B0F5007F05D040F20911DFF85B
:10276000BC03FDF78DFDE089002809D0E089B0F5B4
:10277000805F05D04FF48571DFF8A003FDF780FD81
:10278000208A002809D0208AB0F5004F05D040F2F9
:102790000B11DFF88803FDF773FD002080464046EB
:1027A000C0B2102833D2F80728D5218860880143A9
:1027B000A0880143E088014360890143A089014367
:1027C000E089014322890A4345F27721208A0243A6
:1027D000914651F400418A463000C0B24146C9B228
:1027E000890011EB8011DFF8380341180D002988AA
:1027F00031EA0A011AEA090001432980BFB27F08C1
:10280000380080B2002802D018F10108C7E7584606
:10281000BDE8F28F01000020002903D17FF0020201
:10282000100011E000220A8000224A800022CA80A3
:1028300000220A8200220A8100224A8100228A8123
:102840000022CA8100228A807047F8B507000C0078
:1028500015003800C0B2002819D03800C0B20128D5
:1028600015D03800C0B2022811D03800C0B20328F9
:102870000DD03800C0B2042809D03800C0B20528F5
:1028800005D04FF4BE71DFF89402FDF7F9FC20008B
:1028900080B2002803D0200080B2002805D140F289
:1028A0007D11DFF87802FDF7EBFC280080B21028DC
:1028B0000DD3280080B2202803D3280080B23C2802
:1028C00005D34FF4BF71DFF85402FDF7D9FCDFF8F0
:1028D00048020088C00705D440F27F11DFF83C02AF
:1028E000FDF7CEFC00210800C0B2102818D2E00786
:1028F0000ED53800C0B20A00D2B2920012EB80129C
:10290000DFF8240282181600308865F30500308055
:10291000A4B26408200080B2002801D0491CE2E77C
:10292000F1BD10B50400200080B2002814D02000B2
:1029300080B2B0F5804F0FD0200080B2B0F5004FCC
:102940000AD0200080B2B0F5404F05D04FF4ED71B1
:10295000DFF8C801FDF794FCDFF8BC010088C00770
:1029600005D440F2DB11DFF8B401FDF789FCDFF894
:10297000B401210089B2890B028861F38F32028091
:1029800010BD38B505000C002800C0B2002818D0D2
:102990002800C0B2012814D02800C0B2022810D0EC
:1029A0002800C0B203280CD02800C0B2042808D0E8
:1029B0002800C0B2052804D04FF40E715748FDF727
:1029C0005FFC200080B2002803D0200080B20028E5
:1029D00004D140F239215148FDF752FC2900C9B217
:1029E000DFF8480110EB011001882143018031BD5F
:1029F00038B505000C002800C0B2002818D0280007
:102A0000C0B2012814D02800C0B2022810D028007B
:102A1000C0B203280CD02800C0B2042808D0280077
:102A2000C0B2052804D040F24A213C48FDF728FCFA
:102A3000200080B2002803D0200080B2002804D1FA
:102A400040F24B213548FDF71BFC2900C9B238483C
:102A500010EB011001882143018031BDF8B504005D
:102A60000D0016002C480088C00704D440F28121D4
:102A70002A48FDF705FC2000C0B2002818D020002D
:102A8000C0B2012814D02000C0B2022810D020000B
:102A9000C0B203280CD02000C0B2042808D0200007
:102AA000C0B2052804D040F282211C48FDF7E8FBA3
:102AB000280080B2002803D0280080B2002804D16A
:102AC00040F283211548FDF7DBFB00210800C0B26E
:102AD000102820D2E80716D52000C0B20A00D2B2D2
:102AE000920012EB80120E48821817003000C0B21C
:102AF000012804D1388850F40040388003E0388839
:102B00004004400C3880ADB26D08280080B2002827
:102B100001D0491CDAE7F1BDFC3B0540809A00007A
:102B2000003C0540F83B0540023C054008380540A4
:102B30000A380540F8B5050000F002FC06002F0039
:102B40000C490868002813D05FF0FF300A68B0FB1A
:102B5000F2F2086842431400A54203D2601B0968E0
:102B6000884200D2270000F0EBFB801BB842FAD36A
:102B7000F1BD00BF548EFF1F62F30F2262F31F42AC
:102B8000401810F0030308D0C91A1FD3DB0748BF51
:102B900000F8012D28BF20F8022D130030B4144690
:102BA0001546103928BF20E93C00FAD8490728BF4C
:102BB00020E90C0048BF40F8042D890028BF20F808
:102BC000022D48BF00F8012D30BC7047C91818BF4E
:102BD00000F8012DCB0728BF00F8012D704700F049
:102BE000B5BB00000CB430B583B00A4606A902910B
:102BF000044600250194009502AB01A908487844D9
:102C00001E3000F0B0FB019A157000284EBF04463C
:102C10000198041B204603B030BC5DF80CFB00BFDC
:102C20008DD6FFFF00F10103810704D010F8011BCE
:102C3000820781B1FAD10268A2F10131914311F00A
:102C4000803104BF50F8042FF6E709BAB1FA81F1D8
:102C500000EBD100401CC01A704700005FEA000C76
:102C600011F8012B00F8012B12B111F8012BF9E733
:102C700060467047010009B200290AD4012210F011
:102C80001F018A40DFF8F81303001BB25B0941F80B
:102C900023207047010009B200290ED4012210F050
:102CA0001F018A40DFF8DC1303001BB25B0941F807
:102CB0002320BFF34F8FBFF36F8F7047010009B21E
:102CC00000290AD4012210F01F018A40DFF8B8134E
:102CD00003001BB25B0941F82320704710B40200C7
:102CE00012B2002A06D40A01DFF8A033040024B28D
:102CF0001A5509E00A01DFF89833040024B214F0F1
:102D00000F04234403F8042C10BC70470120DFF8A3
:102D100084130860704780B50120DFF87C130870C9
:102D20000120DFF8781308704FF48260DFF8701329
:102D3000088000220121DFF86C03FEF73FF8012133
:102D4000DFF8640301F0F4F901BD78B58DB001211D
:102D50004FF4804001F0D8FC01215FF4003001F015
:102D6000D3FC05A801F0F2FA4FF480500590012041
:102D700009904FF482600A9000200890CB48079099
:102D8000CB48069000200B9004200C90C64D05AA5D
:102D90000021280001F0F3FA0400002C5DD102A804
:102DA00001F0ACFB4FF48060029000200390C14E14
:102DB000049602AA0021280001F0AFFB06983060BB
:102DC000079870600A98099951EA0041B160B661AC
:102DD0000B990C9801430898014305980143029808
:102DE000014303980143F16101220021280001F011
:102DF00026FC0121280001F0F5FB40F23F11AE480E
:102E000001F012FD2020ADF800000020ADF8020016
:102E1000AA480190684601F025FDBDF90200FFF7C0
:102E20004DFF0F21BDF90200FFF758FFBDF9020069
:102E3000FFF720FF40F21711A14801F0F5FC012136
:102E4000280001F01BF901220121280001F037F9C7
:102E500001220021280001F08BF920000EB070BD86
:102E60002DE9FF4104000121012001F0A5FC4FF4F0
:102E7000A06000903020019000200290019810285E
:102E800001D1052500E001250126019800098640B1
:102E9000300080B210FA84F0401E310089B2B0FBDD
:102EA000F1F77F1BADF80C70DFF818826A4600213D
:102EB000404602F04BF901220021404602F0D1F9D0
:102EC00001220021404602F005FABDE8FF81F0B47E
:102ED0000F014FF44073BB404FF40075BD400469CF
:102EE0009C4313EA05021443046140F20134BC40E0
:102EF0004FF48076BE40D0F810C03CEA040C14EACF
:102F0000060252EA0C0CC0F810C0F0BC704780B545
:102F10006148017801290ED00121017001205F492B
:102F200008700021604801F0C5FBD0F582605C4963
:102F30000880FFF7EBFE00216248FFF7C8FF4FF45F
:102F400080715848FDF7B0FF01BD10B5554C200009
:102F5000FDF7F2FF0B212000FDF7A6FF10BD80B5A5
:102F60005048FDF705FF00215FF0807001F0FCFB89
:102F7000002201210220FFF768FC0022022102202A
:102F8000FFF763FC0020FFF785FE0320FFF782FEBA
:102F90000420FFF77FFE01BD18B58DB0FFF7D5FE09
:102FA0004FF47A70FFF75CFF212201210220FFF726
:102FB0004CFC202202210220FFF747FC01215FF098
:102FC000807001F0D1FB02A8FDF7D9FD032003902A
:102FD0004FF4006004905FF4E13005904FF400403E
:102FE0000990304C002202A92000FDF7E9FD0320E2
:102FF000ADF802004FF48B70ADF80000324801903C
:10300000684601F02FFCBDF90200FFF757FE0F21C3
:10301000BDF90200FFF762FEBDF90200FFF72AFECC
:103020000420ADF802004FF48D70ADF80000274881
:103030000190684601F016FCBDF90200FFF73EFE64
:103040000F21BDF90200FFF749FEBDF90200FFF7AD
:1030500011FE01222F212000FDF7B0FE0EB010BDA1
:1030600038B504000D005FF0FF332A0092B2210052
:103070000C48FEF70BF800200749087031BD00002E
:1030800000E100E080E100E080E200E000E400E038
:1030900018ED00E0000021426D8EFF1F6E8EFF1FB5
:1030A0006A8EFF1F00D0014000300540A080FF1F46
:1030B00006D00140308EFF1F34080140172D00005C
:1030C00014080140004002404B2F00000F2F000069
:1030D00010B4020012B2002A05D40A012F4B0400DA
:1030E00024B21A5508E00A012D4B040024B214F052
:1030F0000F04234403F8042C10BC704710B50400DF
:10310000601EB0F1807F01D301200EE0601E2549D2
:1031100008600F215FF0FF30FFF7DAFF002022493F
:103120000860072021490860002010BD81B02049B7
:103130000968204A1268120E12F00702D14001F508
:10314000B8516F3141F27072B1FBF2F20100481ECA
:10315000002906D0009200994B1E00930029FAD155
:10316000F4E701B0704781B011490A681149096854
:10317000090E11F00701CA400F498A180F49B2FB26
:10318000F1F20100481E002906D0009200994B1E62
:1031900000930029FAD1F4E701B0704700E400E0A1
:1031A00018ED00E014E000E018E000E010E000E0BE
:1031B000708EFF1F204005407F8D5B00808D5B007F
:1031C0002DE9F84F84B00E4617460BB100221A6065
:1031D0000446A04601E008F1010898F8000002F05A
:1031E000B9F80028F7D198F800002D2816BF2B2831
:1031F00018F8015B2B25002F019603D4012F01D075
:10320000252F03DB002E56D0346054E0002F0CDD58
:10321000102F04BF98F80000302802BF98F8010072
:1032200040F02000782811D10CE098F800003028F8
:1032300018BF0A270AD198F8010040F0200078282A
:1032400003D1102708F1020800E00827CDF80C8010
:1032500001E008F1010898F800003028F9D0064E86
:103260007E4414364FF0000906F12800CDF808809E
:10327000CA468DF800000CE0006A000001469DF887
:103280000000081ACA465FFA80FB07FB09B908F17B
:10329000010898F8000002F067F801463A4606F186
:1032A000280002F06BF80028E8D10399414504D1C9
:1032B000019800B10460002020E00299F05DA8EBC5
:1032C0000101091A002910D406DCB9EB0B0103D364
:1032D000B1FBF7F0504508D0AFF30080049808B177
:1032E000012101604FF0FF3903E02D2D08BFC9F126
:1032F0000009019808B1C0F80080484605B0BDE853
:10330000F08F04E000E000000A220021F9E700232A
:1033100056E770B50D462C7834B970BD11F8013FF1
:103320001678B34206D0401C214602F053F828B16B
:1033300001462A4612F8013F002BEFD170BD000074
:1033400001480068704700BF588EFF1F00B502009B
:1033500000211120ABBE0021002A00D003C200BD15
:1033600040F0200070472DE9F14FB0B09146049134
:103370000DF142013A9A21914A7000210DF1950216
:103380001E460D912F920BE019F8011B0498309AFC
:1033900090470028049000F067850D98401C0D9020
:1033A00099F8000050B12528EED1002100220791A4
:1033B000089209910A920B910C9204E00D9800F08A
:1033C00055BD41F0010119F8010F2028F9D023283B
:1033D0000CD02B2804D02D2805D0302809D00BE0A4
:1033E00041F00201EFE741F00401ECE741F0080190
:1033F000E9E741F01001E6E72A280DD1326852F8DA
:10340000040B326000280F9003D540420F9041F02A
:10341000040109F1010914E00F92DFF8B03B0AE062
:103420000F98984205DA00EB800402EB4402303A30
:103430000F9209F1010999F80020A2F130000A2841
:10344000EED399F800002E2803D04FF0FF320E92F1
:1034500027E019F8010F2A2807D1306850F8042B0B
:1034600030600E9209F101091BE02D280CBF09F113
:103470000109002000220E92DFF8504B0BE040B90A
:103480000E9AA24205DA02EB820503EB4503303BBC
:103490000E9309F1010999F80030A3F130020A2ACC
:1034A000EDD3ADF840100FF6683099F8001001F038
:1034B00091FF08B119F8010B8DF842009DF8420008
:1034C000682805D199F8000068280CD1622106E02F
:1034D0006C2804BF99F800006C2804D171218DF884
:1034E000421009F1010912A9069119F8012B8DF872
:1034F00000201746B7F1250026D02038022840F2D8
:103500007981133800F0F0830B3800F07A84401E84
:1035100000F02F84401E022840F26C81001F00F052
:103520002884401F00F0EC80401E00F0DD83401E28
:1035300000F0D780C01E0CD0801E00F0D583C01EC6
:1035400000F0D28300F066BC01220792252100F032
:103550005EBC306850F8044B3060002C059440F09D
:10356000AD8021994878002800F0A4804FF0FF3406
:103570000FF6D42001F03AFF241A40F0758400F0D1
:1035800057BC01236A4602A9384600F029FD0028ED
:1035900040F06A84641EF4D13097079C0DF148080E
:1035A00074B1309F18F8011B0498B84700280490A4
:1035B00000F05A840D98401C641E0D90F2D1309793
:1035C0000A9C3021002C8DF800100CDD309F012367
:1035D0006A4602A9384600F003FD002840F0448402
:1035E000641EF4D13097DDF81480089C74B1309FCC
:1035F00018F8011B0498B8470028049000F03484A0
:103600000D98401C641E0D90F2D130970B9C302118
:10361000002C8DF800100CDD309F01236A4602A9B2
:10362000384600F0DDFC002840F01E84641EF4D112
:10363000309705980899099C00EB010874B1309FF8
:1036400018F8011B0498B8470028049000F00C8477
:103650000D98401C641E0D90F2D130970C9C3021C7
:10366000002C8DF800100CDD309F01236A4602A962
:10367000384600F0B5FC002840F0F683641EF4D113
:1036800030979DF8400041077FF58AAE2020002D3D
:103690008DF800007FF784AE309C01236A4602A9B2
:1036A000204600F09DFC002840F0DE836D1EF4D122
:1036B000309475E60FF6AC100590B9E30E9D002D21
:1036C00004D52046FFF7AEFA044608E02A4600215A
:1036D000204601F053FE002814BF041B2C4608941A
:1036E000A6E3316851F8040B316020F0000400219A
:1036F00021F0FF35CDE9024512AB059378217CE33B
:103700002199487820B14FF0FF340FF60C1031E7C3
:103710009DF84200622853D0682815D06A2836D018
:103720006C2806D071283CD0742825D07A2818D06F
:1037300053E0316851F8040B3160002857D14FF045
:10374000FF340FF6EC0015E7316851F8040B3160D7
:1037500020B94FF0FF340FF6D8000BE70D99018028
:1037600066E3316851F8040B316000283FD14FF017
:10377000FF340FF6BC00FDE6316851F8040B3160F0
:10378000002834D14FF0FF340FF6A400F2E6316880
:1037900051F8040B316070B94FF0FF340FF6900010
:1037A000E8E6316851F8040B316020B94FF0FF347E
:1037B0000FF67C00DEE60D9AD317C0E9002337E34D
:1037C000316851F8040B316020B94FF0FF340FF627
:1037D0006000CFE60D9901702AE3316851F8040BBF
:1037E000316020B94FF0FF340FF64400C2E60D9966
:1037F00001601DE39DF842004C2807BF3168CA1DD7
:103800003068C21D22F007023260D2E9000108329E
:103810003260CDE90201C80F02D007982D210AE0DD
:10382000BDF84000810702D507982B2103E0C007AF
:1038300005D50798202112AA1154401C079012A800
:1038400007994518DDE90201CDE92201059525AC6E
:103850000E98002848BF062007D402BF9DF800003C
:1038600040F02000672801D101200E90DDE902011F
:103870004A0042EAD07253154FEAE27B4FF0FF3222
:10388000934508BF93420FD1090341EA1051000349
:10389000002908BF002807D0613F03201A2F089095
:1038A00017D30FF2C8710FE0DDE902014A0052158B
:1038B00012F1010F10D108030ED1613F03201A2F1E
:1038C00008901AD30FF2AC7103222846FDF792FF3D
:1038D000AEE20FF29471F7E7DDE9020101AA01F00F
:1038E000A5FDCDE9020120F0000231F0004308BF40
:1038F000002A05D100270025B7E00FF27471E3E735
:103900000199DFF8CC2647F29750414391FBF2F240
:103910000192DDE92245C2F10702002A25F00045A7
:1039200004DD2046294600F02EFB0BE05242002029
:10393000DFF8A01600F027FB02460B46204629467A
:10394000FDF74EFD04469DF8000040F0200A0D46AC
:10395000BAF1660F06BF019800F10A084FF0060899
:103960000E988044B8F1140FC8BF4FF014083020EF
:103970008DF894000DF19507B8F1000F36DD204663
:10398000294601F08BFD01460A4607F10803042091
:103990000A27B2FBF7F707EB870EA2EB4E02303295
:1039A00003F8012C0A22B7FBF2F202EB820EA7EB1E
:1039B0004E073037401E03F8027DE9D1A8F1080810
:1039C000B8F1000F03F10807D6DD0846FCF776FCD6
:1039D00002460B462046294601F028FE0022DFF869
:1039E000F83501F095FE04460D46C8E72F983F1ABA
:1039F0000DF1950404E00198401E7F1E0190641CA7
:103A000020783028F7D0BAF1660F02D10198401C17
:103A100004E0BAF1650F0CBF012000200E99401898
:103A20008742B8BF781E00281DD4B84204DA215C52
:103A30003429C8BF392100DC30210246631E9D189D
:103A400000E0401E15F80179521E8F42F9D0392945
:103A500002D1A15C491CA154002A04D50199491C3A
:103A60001C46401C01910746019D9DF800B001F0E5
:103A70003DFF406A90F80080DDF838A038B2002899
:103A800002DC01270FF2F0544BF02000662808BF3B
:103A90006D1C16D067285BD128B210F1040F43DBF0
:103AA000504541DA9DF840006D1C010703D438B23F
:103AB0005045D8BF824628B2BAEB000A48BF4FF043
:103AC000000A0FFA85FBBBF1000F00F3AA800898EB
:103AD000411C0891302205990A54BAF1000F03DC09
:103AE0009DF84000010705D50898411C08910599EB
:103AF00001F800801AEB0B0FB8BFCAF100052DB218
:103B00006842AA443AB20B909245B8BF5746059B0B
:103B100008983FB209973A4621461844FDF76AFED5
:103B2000AAEB07000C90C8E038B2504504DA9DF8C3
:103B300040100A0758BF8246BAF1010A48BF4FF049
:103B4000000ABBF1670F0CBF4FF0650B4FF0450B40
:103B50000898411C0891BAF1000F059914F8012B3F
:103B60000A5403DC9DF8400001071BD50898411C4E
:103B70000891BAF1000F059901F8008012DD7F1E4F
:103B800038B28245B8BF57460598089B3AB22146DD
:103B90001844FDF72FFE08993FB279180891AAEB57
:103BA00007000B900598089908442AB2002A80F86B
:103BB00000B003D42B224270811C04E02D214170FF
:103BC0001546811C6D42002022AA0A2409E02B46DA
:103BD00093FBF4F505EB8507A3EB470302F8013BE4
:103BE000401C2DB2002DF2DC012806DC4BF0200237
:103BF000652A04BF302201F8012B002822AA08D12F
:103C0000302001F8010B06E0401E135C303301F850
:103C1000013B0028F8DC059A08981044091A09911C
:103C20004BE038B229B288421DDA0598089B3AB2B7
:103C300021461844FDF7DEFD08993FB27918089136
:103C4000ABEB0700BAF1000F0B9003DC9DF84000CE
:103C5000020705D5059800F801800999491C0991CA
:103C6000CDF830A029E00598089B2AB221461844D7
:103C7000FDF7C0FD08987F1B5844BAF1000F08906B
:103C800003DC9DF840100A0704D5411C08910599F2
:103C900001F8008038B28245B8BF57460598089BA6
:103CA0003AB204EB0B011844FDF7A4FD08983FB2AB
:103CB00038180890AAEB07000B909DF8400000F020
:103CC0001400102840F0B480079A08980B998218C5
:103CD00009988A1882180C980F998018884280F2E7
:103CE000A780081A0A90A3E09DF84200622808D035
:103CF00068280CD06A2810D06C2818D071280CD0F5
:103D000015E0316851F8040B3160C0B213E031683E
:103D100051F8040B316080B20DE03068C21D22F012
:103D200007023260D2E900010832326004E03168F3
:103D300051F8040B31600021CDE902019DF84000EB
:103D4000010754D5DDE90223002B08BF002A4ED01D
:103D50009DF8000040F02000782848D1079812A96B
:103D600030220A54401C431C9DF8002007930A543B
:103D70003DE09DF84200622808D068280CD06A28EF
:103D800010D06C2818D071280CD015E0316851F88B
:103D9000040B316040B213E0316851F8040B31601C
:103DA00000B20DE03068C21D22F007023260D2E995
:103DB00000010832326004E0316851F8040B3160D0
:103DC000C117CDE90201002902D507982D210AE08B
:103DD000BDF84000810702D507982B2103E0C007FA
:103DE00005D50798202112AA1154401C079012A84B
:103DF0000799014405919DF8001002A800F039F8D8
:103E000016E001200790306850F8041B30608DF8F0
:103E100048100DE0012125229DF8000007918DF842
:103E2000482028B19DF800008DF849000221079133
:103E30000F9D07990A986D1A08992D1A0B986D1AFB
:103E400009992D1A0C986D1A9DF840102D1A4807E3
:103E50003FF5A3AB2021002D8DF800107FF79DAB1F
:103E6000309F2C46FFF78DBB4FF0FF3031B0BDE8DF
:103E7000F08F2DE9FC4707468A463C6950466F287B
:103E800008BF082505D0FFF76BFA782814BF0A256C
:103E90001025D7E900013C2680468946BAF1640F17
:103EA00018BFBAF1690F05D1002903D5D8F1000870
:103EB00069EB4909B9F1000F08BFB8F1000F0CD147
:103EC000386B50B9082D3AD197F83800010736D52C
:103ED00030223B2684F83B2031E08DF800A040469C
:103EE00049462A46EB17FDF73FF93032D0B2761E2D
:103EF0003A2801960EDAA255404649462A46EB1763
:103F0000FDF732F980465FEA010908BFB8F1000FFA
:103F100005D108E09DF800001218513AEBE7F86867
:103F2000A1198842DBD3082D09D197F83800010781
:103F300005D5A05D302802D0761E3020A055C6F1F0
:103F40003C03BB61A119F960386B834208DAC31ADC
:103F50003B624FF6EF70398F01403987BDE8F38738
:103F600000280ED597F8380000F01400102808D16A
:103F70007A6B7969386A521A121AD21A002AC8BFA3
:103F80003A62BDE8F3872DE9D04306460F46144652
:103F90004FF00008DFF8449012E0E00707D54246F2
:103FA0004B463046394601F0B3FB06460F464046C5
:103FB000494642464B4601F0ABFB641080468946B9
:103FC000002CEAD130463946BDE8D083CBCCCC0CAE
:103FD000A08601000000F03F84D7974100002440F4
:103FE000F8B505460E4617461C4600205CB117F88A
:103FF000011BB068A847B06030B1F06A401CF062A5
:104000000020641EF3D1F2BD4FF0FF30F2BD00007E
:10401000686A6C747A4C00007072696E74665F73C3
:104020003A20256E20646973616C6C6F776564005B
:104030007072696E74663A2062616420256E206138
:104040007267756D656E74007072696E74665F7309
:104050003A2062616420257320617267756D656E18
:1040600074000000000000006E616E004E414E00C2
:10407000696E6600494E46003000000038B5040005
:104080000D00DFF8BC02844208D0DFF8B802844299
:1040900004D0FB21DFF8B002FCF7F2F82800C0B230
:1040A000002808D02800C0B2012804D0FC21DFF885
:1040B0009802FCF7E5F82800C0B2206031BD70B569
:1040C00005000C001600DFF87802854209D0DFF801
:1040D0007402854205D040F24111DFF81804FCF764
:1040E000CFF8002C04D054F00F10B0F10F1F05D002
:1040F0004FF4A171DFF8FC03FCF7C2F83000C0B246
:10410000002809D03000C0B2012805D040F2431188
:10411000DFF8E003FCF7B4F83000C0B2002803D1A8
:1041200028692043286102E02869A043286170BD06
:1041300038B505000C00DFF80802854209D0DFF829
:104140000402854205D04FF4B271DFF8A803FCF7F2
:1041500097F8002C04D054F00F10B0F10F1F05D0C9
:1041600040F26511DFF88C03FCF78AF8AC6131BDD1
:104170002DE9F84306000F0090465FF00009DFF8D4
:10418000C001864209D0DFF8BC01864205D040F26A
:104190007B11DFF8B401FCF773F83800C0B20428D3
:1041A00005D34FF4BE71DFF8A001FCF769F8404673
:1041B000C0B2002809D04046C0B2012805D040F264
:1041C0007D11DFF88401FCF75BF8DFF82C23107811
:1041D000002840F0B080012010700123F16913FA2B
:1041E00007F08143002900F09080F069C0071DD5D9
:1041F0003800C0B2002819D0B06C000C0400B06EBA
:10420000000C05000B2D11D2A5420FD2F069C0079A
:104210000CD519F10109484680B245F2010C604500
:10422000F4D3002010707FF0070086E0F06980076B
:1042300021D53800C0B201281DD0D6F88800000C66
:104240000400D6F8A800000C05000B2D13D2A542DF
:1042500011D200208146F06980070CD519F10109BF
:10426000484680B245F2010C6045F4D3002010703E
:104270007FF0070061E0F069400721D53800C0B247
:1042800002281DD000208146D6F8C800000C04008A
:10429000D6F8E800000C05000B2D11D2A5420FD274
:1042A000F06940070CD519F10109484680B245F282
:1042B000010C6045F4D3002010707FF007003CE053
:1042C000F069000721D53800C0B203281DD00020B6
:1042D0008146D6F80801000C0400D6F82801000C2D
:1042E00005000B2D11D2A5420FD2F06900070CD5A5
:1042F00019F10109484680B245F2010C6045F4D33A
:10430000002010707FF0070017E04046C0B201287F
:1043100006D1F069BB4013F00F030343F36106E0DD
:10432000F069BB4030EA030313F00F03F361002090
:104330001070002001E05FF0FF30BDE8F283000064
:104340000030054000340540849900000100002041
:10435000002903D17FF0020210000FE000220A6062
:1043600000224A6000228A600022CA6001220A619B
:1043700000224A6100228A610022CA6170472DE949
:10438000F04106000F0014005FF00008DFF864033E
:10439000864208D0DFF86003864204D04FF46B7188
:1043A0005448FBF76DFF3800C0B2042804D340F234
:1043B000AD315048FBF764FF002C03D17FF00200C1
:1043C000804693E0E068002813D0E068B0F5807F75
:1043D00002D12079C0070CD5E068B0F5007F03D189
:1043E000207910F0030F04D040F2B2314148FBF7BE
:1043F00047FFE068002813D0E068B0F5807F02D165
:10440000207AC0070CD5E068B0F5007F03D1207A90
:1044100010F0030F04D040F2B3313648FBF730FF01
:10442000A06900280AD0A069012807D0A069022845
:1044300004D04FF46D712F48FBF722FFE06900288C
:104440000AD0E069042807D0E069082804D040F2C7
:10445000B5312848FBF714FF206940F2014188423A
:1044600004D340F2B6312348FBF70AFF2068B0F5C9
:10447000805F07D02068002804D040F2B7311D4883
:10448000FBF7FEFE606816F140013A00D2B211EB74
:1044900082110860A06816F144013A00D2B211EB13
:1044A0008211086020698005800D616950EA014031
:1044B00016F148013A00D2B211EB8211086016F1F0
:1044C0005C003900C9B210EB811005002968DFF8E3
:1044D0002C0201402268E0680243A0690243E069BF
:1044E000024341F20F300240114329604046BDE8CB
:1044F000F0810000849900006F8EFF1F01000020F2
:10450000002903D17FF00202100005E000220A60BA
:1045100000224A6000228A6070472DE9F0410600BF
:104520000F0014005FF00008DFF8C801864209D0D0
:10453000DFF8C401864205D040F26E41DFF8C001C9
:10454000FBF79EFE3800C0B2042805D340F26F414D
:10455000DFF8AC01FBF794FE002C03D17FF00200E2
:1045600080463CE02068B0F5806F08D020680028C5
:1045700005D040F27441DFF88801FBF781FE6068E6
:10458000B0F5006F08D06068002805D040F2754192
:10459000DFF86C01FBF774FE207A10F0030F05D0F2
:1045A00040F27641DFF85801FBF76AFE16F15C0035
:1045B0003900C9B210EB8110050021686068014321
:1045C000890A286861F38B202860A0688008800031
:1045D00016F158013A00D2B211EB82110860404640
:1045E000BDE8F08138B504000D00DFF80801844211
:1045F00009D0DFF80401844205D040F2B541DFF86C
:104600000001FBF73DFE2800C0B2002809D02800B9
:10461000C0B2012805D040F2B641DFF8E400FBF754
:104620002FFE2800C0B2012804D1E06A50F001003A
:10463000E06203E0E06A40084000E06231BD70B52E
:1046400004000D001600DFF8AC00844209D0DFF84A
:10465000A800844205D040F2C941DFF8A400FBF76E
:104660000FFE2800C0B2042805D340F2CA41DFF88B
:104670009000FBF705FE3000C0B2002809D03000E2
:10468000C0B2012805D040F2CB41DFF87400FBF73F
:10469000F7FDE16ADFF86C0001402800C0B232008B
:1046A000D2B2520052EA002240F602700240114398
:1046B000E16270BD38B504000D000E48844207D099
:1046C0000D48844204D040F272510D48FBF7D8FDEA
:1046D0002800C0B2042804D340F273510848FBF705
:1046E000CFFD14F16800EDB210EB85100068000CEE
:1046F00032BD00000030054000340540F0ECFFFF03
:1047000084990000FDF0FFFF38B504000D00002C77
:1047100004D03D4850EA0401814203D071213B4856
:10472000FBF7AEFD2800C0B2002807D02800C0B2B9
:10473000012803D072213548FBF7A2FD34480068F8
:10474000C00703D473213148FBF79AFD2800C0B29B
:10475000012804D12F480168A143016003E02D48DE
:1047600001682143016031BD38B504000D00002C03
:1047700004D0294850EA0401814203D0842123480F
:10478000FBF77EFD2800C0B2002807D02800C0B289
:10479000012803D085211D48FBF772FD2800C0B217
:1047A000012804D11D480168A143016003E01B48B2
:1047B00001682143016031BD38B504000D00002CB3
:1047C00004D0174850EA0401814203D096210F48D3
:1047D000FBF756FD2800C0B2002807D02800C0B261
:1047E000012803D097210948FBF74AFD2800C0B2F1
:1047F000012804D10B480168A143016003E0094886
:1048000001682143016031BD11C5F38F2C9A00006E
:10481000108004400080044079FD0F0F04800440A4
:10482000FF8707000880044038B504000D000A48DF
:10483000844205D30948844202D214F0030F03D006
:104840008F210748FBF71CFD280000B2216860F3A8
:104850000801216031BD0000040801406D080140DD
:10486000DC98000070B504000026002C03D17FF016
:104870000200060050E0B4F90000B0F5007F04DB50
:10488000CD21DFF81806FBF7FBFC0620B4F9021077
:10489000B4F90020520942432032914209D3B4F9BD
:1048A0000010490900FB01F02530B4F902108842DC
:1048B00007D2B4F90200202803D37FF002000600DB
:1048C0002AE0B4F90200DFF8081611EB80010D00B0
:1048D0002868C005C00D40F2FF1188420AD1B4F922
:1048E000000028606068DFF85C16B4F9022041F827
:1048F000220011E0B4F900002968C905C90D8842F9
:1049000007D16068DFF83C16B4F9022041F82200B4
:1049100002E07FF001000600300070BD80B5DFF8D6
:10492000240600688047BFF34F8F01BD80B5DFF8D4
:10493000140640688047BFF34F8F01BD80B5DFF894
:10494000040680688047BFF34F8F01BD80B5DFF854
:10495000F405C0688047BFF34F8F01BD80B5DFF815
:10496000E40500698047BFF34F8F01BD80B5DFF8D4
:10497000D40540698047BFF34F8F01BD80B5DFF894
:10498000C40580698047BFF34F8F01BD80B5DFF854
:10499000B405C0698047BFF34F8F01BD80B5DFF814
:1049A000A405006A8047BFF34F8F01BD80B5DFF8D3
:1049B0009405406A8047BFF34F8F01BD80B5DFF893
:1049C0008405806A8047BFF34F8F01BD80B5DFF853
:1049D0007405C06A8047BFF34F8F01BD80B5DFF813
:1049E0006405006B8047BFF34F8F01BD80B5DFF8D2
:1049F0005405406B8047BFF34F8F01BD80B5DFF892
:104A00004405806B8047BFF34F8F01BD80B5DFF851
:104A10003405C06B8047BFF34F8F01BD80B5DFF811
:104A20002405006C8047BFF34F8F01BD80B5DFF8D0
:104A30001405406C8047BFF34F8F01BD80B5DFF890
:104A40000405806C8047BFF34F8F01BD80B5DFF850
:104A5000F404C06C8047BFF34F8F01BD80B5DFF811
:104A6000E404006D8047BFF34F8F01BD80B5DFF8D0
:104A7000D404406D8047BFF34F8F01BD80B5DFF890
:104A8000C404806D8047BFF34F8F01BD80B5DFF850
:104A9000B404C06D8047BFF34F8F01BD80B5DFF810
:104AA000A404006E8047BFF34F8F01BD80B5DFF8CF
:104AB0009404406E8047BFF34F8F01BD80B5DFF88F
:104AC0008404806E8047BFF34F8F01BD80B5DFF84F
:104AD0007404C06E8047BFF34F8F01BD80B5DFF80F
:104AE0006404006F8047BFF34F8F01BD80B5DFF8CE
:104AF0005404406F8047BFF34F8F01BD80B5DFF88E
:104B00004404806F8047BFF34F8F01BD80B5DFF84D
:104B10003404C06F8047BFF34F8F01BD80B5DFF80D
:104B20002404D0F880008047BFF34F8F01BD80B5CB
:104B3000DFF81004D0F884008047BFF34F8F01BD29
:104B400080B5DFF80004D0F888008047BFF34F8FAE
:104B500001BD80B5DFF8EC03D0F88C008047BFF3CF
:104B60004F8F01BD80B5DFF8DC03D0F8900080479F
:104B7000BFF34F8F01BD80B5DFF8C803D0F89400B4
:104B80008047BFF34F8F01BD80B5DFF8B803D0F881
:104B900098008047BFF34F8F01BD80B5DFF8A403B5
:104BA000D0F89C008047BFF34F8F01BD80B5DFF880
:104BB0009403D0F8A0008047BFF34F8F01BD80B5AC
:104BC000DFF88003D0F8A4008047BFF34F8F01BD0A
:104BD00080B5DFF87003D0F8A8008047BFF34F8F8F
:104BE00001BD80B5DFF85C03D0F8AC008047BFF3AF
:104BF0004F8F01BD80B5DFF84C03D0F8B00080477F
:104C0000BFF34F8F01BD80B5DFF83803D0F8B40093
:104C10008047BFF34F8F01BD80B5DFF82803D0F880
:104C2000B8008047BFF34F8F01BD80B5C548D0F8AD
:104C3000BC008047BFF34F8F01BD80B5C148D0F89D
:104C4000C0008047BFF34F8F01BD80B5BD48D0F88D
:104C5000C4008047BFF34F8F01BD80B5B948D0F87D
:104C6000C8008047BFF34F8F01BD80B5B548D0F86D
:104C7000CC008047BFF34F8F01BD80B5B148D0F85D
:104C8000D0008047BFF34F8F01BD80B5AD48D0F84D
:104C9000D4008047BFF34F8F01BD80B5A948D0F83D
:104CA000D8008047BFF34F8F01BD80B5A548D0F82D
:104CB000DC008047BFF34F8F01BD80B5A148D0F81D
:104CC000E0008047BFF34F8F01BD80B59D48D0F80D
:104CD000E4008047BFF34F8F01BD80B59948D0F8FD
:104CE000E8008047BFF34F8F01BD80B59548D0F8ED
:104CF000EC008047BFF34F8F01BD80B59148D0F8DD
:104D0000F0008047BFF34F8F01BD80B58D48D0F8CC
:104D1000F4008047BFF34F8F01BD80B58948D0F8BC
:104D2000F8008047BFF34F8F01BD80B58548D0F8AC
:104D3000FC008047BFF34F8F01BD80B58148D0F89C
:104D400000018047BFF34F8F01BD80B57D48D0F88B
:104D500004018047BFF34F8F01BD80B57948D0F87B
:104D600008018047BFF34F8F01BD80B57548D0F86B
:104D70000C018047BFF34F8F01BD80B57148D0F85B
:104D800010018047BFF34F8F01BD80B56D48D0F84B
:104D900014018047BFF34F8F01BD80B56948D0F83B
:104DA00018018047BFF34F8F01BD80B56548D0F82B
:104DB0001C018047BFF34F8F01BD80B56148D0F81B
:104DC00020018047BFF34F8F01BD80B55D48D0F80B
:104DD00024018047BFF34F8F01BD80B55948D0F8FB
:104DE00028018047BFF34F8F01BD80B55548D0F8EB
:104DF0002C018047BFF34F8F01BD80B55148D0F8DB
:104E000030018047BFF34F8F01BD80B54D48D0F8CA
:104E100034018047BFF34F8F01BD80B54948D0F8BA
:104E200038018047BFF34F8F01BD80B54548D0F8AA
:104E30003C018047BFF34F8F01BD80B54148D0F89A
:104E400040018047BFF34F8F01BD80B53D48D0F88A
:104E500044018047BFF34F8F01BD000080B5394842
:104E6000D0F848018047BFF34F8F01BD80B535486A
:104E7000D0F84C018047BFF34F8F01BD80B531485A
:104E8000D0F850018047BFF34F8F01BD80B52D484A
:104E9000D0F854018047BFF34F8F01BD84980000C4
:104EA00080B52848D0F858018047BFF34F8F01BD27
:104EB00080B52448D0F85C018047BFF34F8F01BD17
:104EC00080B52048D0F860018047BFF34F8F01BD07
:104ED0005C10054080B51B48D0F864018047BFF3E3
:104EE0004F8F01BD80B51748D0F868018047BFF3E8
:104EF0004F8F01BD80B51348D0F86C018047BFF3D8
:104F00004F8F01BD80B50F48D0F870018047BFF3C7
:104F10004F8F01BD80B50B48D0F874018047BFF3B7
:104F20004F8F01BD80B50748D0F878018047BFF3A7
:104F30004F8F01BD80B50348D0F87C018047BFF397
:104F40004F8F01BDB088FF1F80B57F48D0F880012A
:104F50008047BFF34F8F01BD80B57B48D0F88401F7
:104F60008047BFF34F8F01BD80B57748D0F88801E7
:104F70008047BFF34F8F01BD80B57348D0F88C01D7
:104F80008047BFF34F8F01BD80B56F48D0F89001C7
:104F90008047BFF34F8F01BD80B56B48D0F89401B7
:104FA0008047BFF34F8F01BD80B56748D0F89801A7
:104FB0008047BFF34F8F01BD80B56348D0F89C0197
:104FC0008047BFF34F8F01BD80B55F48D0F8A00187
:104FD0008047BFF34F8F01BD80B55B48D0F8A40177
:104FE0008047BFF34F8F01BD80B55748D0F8A80167
:104FF0008047BFF34F8F01BD80B55348D0F8AC0157
:105000008047BFF34F8F01BD80B54F48D0F8B00146
:105010008047BFF34F8F01BD80B54B48D0F8B40136
:105020008047BFF34F8F01BD80B54748D0F8B80126
:105030008047BFF34F8F01BD80B54348D0F8BC0116
:105040008047BFF34F8F01BD80B53F48D0F8C00106
:105050008047BFF34F8F01BD80B53B48D0F8C401F6
:105060008047BFF34F8F01BD80B53748D0F8C801E6
:105070008047BFF34F8F01BD80B53348D0F8CC01D6
:105080008047BFF34F8F01BD80B52F48D0F8D001C6
:105090008047BFF34F8F01BD80B52B48D0F8D401B6
:1050A0008047BFF34F8F01BD80B52748D0F8D801A6
:1050B0008047BFF34F8F01BD80B52348D0F8DC0196
:1050C0008047BFF34F8F01BD80B51F48D0F8E00186
:1050D0008047BFF34F8F01BD80B51B48D0F8E40176
:1050E0008047BFF34F8F01BD80B51748D0F8E80166
:1050F0008047BFF34F8F01BD80B51348D0F8EC0156
:105100008047BFF34F8F01BD80B50F48D0F8F00145
:105110008047BFF34F8F01BD80B50B48D0F8F40135
:105120008047BFF34F8F01BD80B50748D0F8F80125
:105130008047BFF34F8F01BD80B50348D0F8FC0115
:105140008047BFF34F8F01BDB088FF1F2DE9F843A3
:1051500006000C0015005FF00009002D03D17FF060
:10516000020081467AE0DFF8E001864208D0DFF8ED
:10517000DC01864204D0C321DFF8D401FBF780F8BC
:10518000002C06D0012C04D0C421DFF8C401FBF7A9
:1051900077F82868002810D02868B0F5007F0CD078
:1051A0002868B0F5807F08D02868B0F5A06F04D0DB
:1051B000C521DFF89C01FBF763F86868002822D05E
:1051C000686810281FD0686820281CD068683028BC
:1051D00019D06868402816D06868502813D06868CD
:1051E000602810D0686870280DD0686880280AD0C0
:1051F0006868902807D06868A02804D0C621DFF826
:105200005001FBF73DF8A868002809D0A86848F2CB
:105210000201884204D0C721DFF83401FBF730F8DF
:1052200016EB840007000020386016F1080010EB30
:1052300084008046A889C8F8000048F2F2713269FB
:10524000200111FA00F082432B6868680343A868C4
:105250000343194020018140114331614846BDE8B4
:10526000F28370B505000C0016003748854207D060
:105270003648854204D04FF4F2713548FBF700F808
:10528000002C06D0012C04D040F2E5113048FAF78A
:10529000F7FF3000C0B2002808D03000C0B20128AB
:1052A00004D04FF4F3712A48FAF7EAFF3000C0B295
:1052B000012807D129694FF480522001824011430F
:1052C000296106E029694FF4805220018240914310
:1052D000296170BD70B505000C0016001A488542A2
:1052E00007D01A48854204D040F216211848FAF730
:1052F000C7FF002C06D0012C04D040F2172114481F
:10530000FAF7BEFF3000C0B2002808D03000C0B2AB
:10531000012804D04FF406710D48FAF7B1FF3000B0
:10532000C0B2012807D129694FF480422001824090
:105330001143296106E029694FF48042200182402F
:105340009143296170BD00000040024000440240CA
:10535000D09B000010B5044600F0C6FA0146204676
:10536000096ABDE81040084710B5044600F0BCFAD1
:1053700001462046896ABDE810400847C9B2830744
:1053800006D0521E22D310F8013B9942F7D11FE0FC
:10539000083A13D302F1040241EA012141EA014132
:1053A00050F8043B121F21BF4B40A3F1013C2CEAF3
:1053B000030C1CF0803FF3D0C9B2001F083210F874
:1053C000013B521E28BF91EA030FF8D818BF0120F5
:1053D000401E7047C9B202788A421AB11CBF10F849
:1053E000012FF9E718BF00207047000080B500B911
:1053F00006A005490B681BB122220021984701E055
:1054000000F07AFA222002BD648EFF1F636F6E7374
:10541000747261696E742068616E646C65723A20A2
:10542000626164206D6573736167650010B5144631
:1054300000F002F8226010BDC1F30A5343B14A00E4
:1054400012F5001F28D2A3F2FE32A1EB02517047E1
:1054500050EA410C20D001F0004C31EA0C01B1FAC5
:1054600081F204BFB0FA80F3D2180B3AB2F12003F4
:105470002CBF00FA03F1914041EA0C013EBFC2F19A
:10548000200C20FA0CF319439040524240F2FD33B5
:10549000D21A01EB0351704700227047400D40F2D1
:1054A0001E4C40EAC120BCEB115C40F0004003D42C
:1054B0008CF30701C84070476FEAE1707047000045
:1054C000841A71EB030604D26E40001BB14112191D
:1054D00073414FF4001C1CEB410F34BF7CEB4306BF
:1054E00083E00C0DA4EB1356362E00F37C80012EC6
:1054F00045EAC32341DC43EA525312BFD20292026F
:105500005B08240545EAC12141EA5051D2EBC02095
:10551000994125D407D1B0FA80F610FA06F162D08D
:105520000020203608E0B1FA81F6B140C6F1200231
:1055300020FA02F21143B0404FEAF474B4EB46543F
:1055400034F001064FEA74040AD8D6F50016760D39
:1055500004F00044F04061FA06F25040F140484047
:10556000C00A40EA415021F0004128BF5FEA5005DF
:1055700050F1000044EBD12135E0DB0A45EAC121BE
:10558000C90AB6F120050EDD42EA0242120CC5F14D
:10559000200603FA06F6EB4042EA06056D42984102
:1055A00061F100010DE062FA06F5F240554063FA40
:1055B00006FC82EA0C02F3405A406D42904161EBD6
:1055C000030111F4801F05D1641E620502D06D0035
:1055D0004041494121F48011430875F1004350F1E5
:1055E000000041EB045170BC70471CEB410F15D219
:1055F00023F0004352EA43060BD04FEA4C0CBCEBBD
:10560000410F04D80C0D661E342EB7DDEBE7801A6F
:10561000994150EA410608BF0021E4E708BF1CEBAE
:10562000430F28BF6FF00001DDE7000070B491EA7E
:10563000030F4FF000457FF543AF6B40841A71EBC9
:10564000030603D2001BB141121973414FF4001C31
:105650001CEB410F34BF7CEB430442E00C0DA4EB88
:105660001356352E4FDC45EAC323DB0A45EAC12138
:10567000C912B6F120050DDD63FA05F6EB4086EAA6
:105680000305124218BF45F00105C01851F1000191
:105690000CD213E062FA06F5F2405540F3415A404D
:1056A000B340F3405A408018594107D349085FEA94
:1056B00030005FEA350528BF45F0010501F580118E
:1056C000420875F1004250F1000041EB04514E00D8
:1056D00016F5001F70BC38BF70470020090D090582
:1056E00070471CEB410F10D252EA43060BD0BCEBC3
:1056F000410F05D80C0DAB43661E342EB6DD02E01B
:10570000AB438018594170BC704770BC70470000B3
:1057100030B540F2FF7C1CEA11541DBF1CEA135542
:10572000644565453FE0641981EA030C6FF35F53FC
:105730000CF0004C43F48013C90241F0004141EAEF
:10574000505EC5021100A5FB020200284FF00000C8
:10575000EEFB01204FF00001E3FB052118BF42F0F2
:105760000102401800214941E3FB0E01A4F58064C9
:105770000D0302D292184041494154F1010470DDF9
:10578000450872F1004250F1000051EB0451A1F5BF
:10579000801102D441EA0C0130BD40F2FF7E4CEA98
:1057A0000E51002030BD0CEA1355644518BF654505
:1057B00081EA030C0CF0004C41D050EA410E1CBFB2
:1057C00052EA430E02E06146002030BD24422C44E0
:1057D0001BD15FEA050EF6D0090302BF0146002087
:1057E000AEF1140EB1FA81F5AEEB050401FA05FE37
:1057F0000C35C5F1200100FA05F5C8404EEA000E4F
:105800006FF35F5343F480139CE733F00043B3FA24
:1058100083F504BFB2FA82FE75440B3D641BB5F1FB
:10582000200E2FBF02FA0EF3AB40C5F1200E22FA74
:105830000EFE38BF43EA0E03AA40641C7CE750EA20
:10584000410E14BF52EA430E6FF000014FF40015F1
:1058500015EB430F8EBF194615EB410F9DE7B4D8EA
:1058600030BDD4F10104B4F120050FDAC4F12005F4
:10587000520828BF42F0010210FA05FE01FA05F5B0
:105880007244E2BFE0402843E1400FE0352C9ADC4F
:10589000C5F1200452EA400220FA05F218BF42F096
:1058A000010231FA05F0A1400A43002172F10042E1
:1058B00050F1000051EB0C0130BD0000FFE7413812
:1058C0001A288041C00F7047A0F10901052901D3B2
:1058D000202801D10120704700207047A0F141012C
:1058E0001A2938BF20307047014870470148704777
:1058F0000080FF1F4880FF1F012000F001B800005A
:1059000080B5AFF30080024A11001820ABBEFBE760
:105910002600020000B585B06846FCF77BFF00203A
:10592000ADF800000220ADF802006A460221032013
:10593000FCF77CFE6A4601210320FCF777FE02217A
:105940000320FDF71EF801210320FDF71AF80020BF
:1059500005B000BD38B5040004210320FDF748F868
:1059600010210320FDF744F800252800C0B20828C4
:1059700015DA01210320FDF73BF8200604D50221AA
:105980000320FCF7FEFF03E002210320FDF730F8BF
:1059900001210320FCF7F5FF64006D1CE5E70421FD
:1059A0000320FCF7EEFF31BD38B5040004210320CD
:1059B000FDF71EF810210320FCF7E3FF0025280067
:1059C000C0B2082815DA01210320FDF711F82006DE
:1059D00004D502210320FCF7D4FF03E002210320B9
:1059E000FDF706F801210320FCF7CBFF64006D1CD6
:1059F000E5E704210320FCF7C4FF31BD78B585B08D
:105A00006846FCF707FF0220ADF802006A464FF433
:105A100080610420FCF70AFE6A4610210320FCF78F
:105A200005FE6A4608210320FCF700FE6A460421B1
:105A30000320FCF7FBFDFFF76DFF4FF480640025AA
:105A4000DFF8486B2A0021003000FDF795F84FF48D
:105A500080610420FCF7CCFF6420FDF767FB4FF466
:105A600080610420FCF78DFF04210320FCF7C0FFB8
:105A700008210320FCF7BCFF6420FDF757FB082139
:105A80000320FCF77EFF6420FDF750FBAE20FFF7FC
:105A900061FF4020FFF75EFF8120FFF75BFF3220B0
:105AA000FFF758FFC820FFF755FFA120FFF752FF6F
:105AB000A620FFF74FFFA820FFF74CFF3F20FFF77E
:105AC00049FFD320FFF746FF0020FFF743FFD52013
:105AD000FFF740FFA020FFF73DFFD920FFF73AFF77
:105AE000F120FFF737FFDA20FFF734FF1220FFF72E
:105AF00031FF9120FFF72EFF3F20FFF72BFF3F20C4
:105B0000FFF728FF3F20FFF725FF3F20FFF722FF89
:105B1000AF20FFF71FFF002006B070BD38B54D1E47
:105B2000441EB4F15000C0B2FFF714FF2800C0B209
:105B300000091030C0B2FFF70DFF15F00F00FFF79E
:105B400009FF31BD30B585B06846FCF763FE022021
:105B5000ADF802000020ADF810006A4604210320D1
